{"abi":[{"type":"constructor","inputs":[{"name":"usdcAddress","type":"address","internalType":"address"}],"stateMutability":"nonpayable"},{"type":"function","name":"creditBridgeDeposit","inputs":[{"name":"keyHash","type":"bytes32","internalType":"bytes32"},{"name":"amount","type":"uint256","internalType":"uint256"}],"outputs":[],"stateMutability":"nonpayable"},{"type":"function","name":"deposit","inputs":[{"name":"keyHash","type":"bytes32","internalType":"bytes32"},{"name":"amount","type":"uint256","internalType":"uint256"}],"outputs":[],"stateMutability":"nonpayable"},{"type":"function","name":"getBalance","inputs":[{"name":"keyHash","type":"bytes32","internalType":"bytes32"}],"outputs":[{"name":"","type":"uint256","internalType":"uint256"}],"stateMutability":"view"},{"type":"function","name":"owner","inputs":[],"outputs":[{"name":"","type":"address","internalType":"address"}],"stateMutability":"view"},{"type":"function","name":"transferOwnership","inputs":[{"name":"newOwner","type":"address","internalType":"address"}],"outputs":[],"stateMutability":"nonpayable"},{"type":"function","name":"usdc","inputs":[],"outputs":[{"name":"","type":"address","internalType":"contract IERC20"}],"stateMutability":"view"},{"type":"function","name":"vaultUSDCBalance","inputs":[],"outputs":[{"name":"","type":"uint256","internalType":"uint256"}],"stateMutability":"view"},{"type":"function","name":"withdraw","inputs":[{"name":"keyHash","type":"bytes32","internalType":"bytes32"},{"name":"amount","type":"uint256","internalType":"uint256"},{"name":"recipient","type":"address","internalType":"address"}],"outputs":[],"stateMutability":"nonpayable"},{"type":"event","name":"BridgeCredit","inputs":[{"name":"keyHash","type":"bytes32","indexed":true,"internalType":"bytes32"},{"name":"amount","type":"uint256","indexed":false,"internalType":"uint256"}],"anonymous":false},{"type":"event","name":"Deposit","inputs":[{"name":"keyHash","type":"bytes32","indexed":true,"internalType":"bytes32"},{"name":"amount","type":"uint256","indexed":false,"internalType":"uint256"}],"anonymous":false},{"type":"event","name":"Withdraw","inputs":[{"name":"keyHash","type":"bytes32","indexed":true,"internalType":"bytes32"},{"name":"recipient","type":"address","indexed":true,"internalType":"address"},{"name":"amount","type":"uint256","indexed":false,"internalType":"uint256"}],"anonymous":false}],"bytecode":{"object":"0x60a060405234801561000f575f80fd5b5060405161083038038061083083398101604081905261002e91610050565b6001600160a01b03166080525f80546001600160a01b0319163317905561007d565b5f60208284031215610060575f80fd5b81516001600160a01b0381168114610076575f80fd5b9392505050565b6080516107876100a95f395f818160b6015281816101ac01528181610373015261053301526107875ff3fe608060405234801561000f575f80fd5b5060043610610085575f3560e01c80638e739461116100585780638e73946114610107578063b0bf1e6514610134578063bc34e6da14610147578063f2fde38b1461014f575f80fd5b80631de26e16146100895780633adab09c1461009e5780633e413bee146100b15780638da5cb5b146100f5575b5f80fd5b61009c61009736600461060f565b610162565b005b61009c6100ac36600461064a565b6102b8565b6100d87f000000000000000000000000000000000000000000000000000000000000000081565b6040516001600160a01b0390911681526020015b60405180910390f35b5f546100d8906001600160a01b031681565b61012661011536600461067c565b5f9081526001602052604090205490565b6040519081526020016100ec565b61009c61014236600461060f565b610464565b61012661051c565b61009c61015d366004610693565b6105a9565b5f811161018a5760405162461bcd60e51b8152600401610181906106b3565b60405180910390fd5b6040516323b872dd60e01b8152336004820152306024820152604481018290527f00000000000000000000000000000000000000000000000000000000000000006001600160a01b0316906323b872dd906064016020604051808303815f875af11580156101fa573d5f803e3d5ffd5b505050506040513d601f19601f8201168201806040525081019061021e91906106db565b61025c5760405162461bcd60e51b815260206004820152600f60248201526e1d1c985b9cd9995c8819985a5b1959608a1b6044820152606401610181565b5f828152600160205260408120805483929061027990849061070e565b909155505060405181815282907f98e783c3864bbf744a057ef605a2a61701c3b62b5ed68b3745b99094497daf1f906020015b60405180910390a25050565b5f82116102d75760405162461bcd60e51b8152600401610181906106b3565b5f8381526001602052604090205482111561032b5760405162461bcd60e51b8152602060048201526014602482015273696e73756666696369656e742062616c616e636560601b6044820152606401610181565b5f8381526001602052604081208054849290610348908490610727565b909155505060405163a9059cbb60e01b81526001600160a01b038281166004830152602482018490527f0000000000000000000000000000000000000000000000000000000000000000169063a9059cbb906044016020604051808303815f875af11580156103b9573d5f803e3d5ffd5b505050506040513d601f19601f820116820180604052508101906103dd91906106db565b61041b5760405162461bcd60e51b815260206004820152600f60248201526e1dda5d1a191c985dc819985a5b1959608a1b6044820152606401610181565b806001600160a01b0316837fe7284ffe0c70ad2f3b0aa15cde1cfe95f736935651a138725b21fd168edc5d6a8460405161045791815260200190565b60405180910390a3505050565b5f546001600160a01b031633146104a95760405162461bcd60e51b81526020600482015260096024820152683737ba1037bbb732b960b91b6044820152606401610181565b5f81116104c85760405162461bcd60e51b8152600401610181906106b3565b5f82815260016020526040812080548392906104e590849061070e565b909155505060405181815282907f8b1d6777928f63751025c630105db7e6a74d7527b1474e6fb143e17b12da4018906020016102ac565b6040516370a0823160e01b81523060048201525f907f00000000000000000000000000000000000000000000000000000000000000006001600160a01b0316906370a0823190602401602060405180830381865afa158015610580573d5f803e3d5ffd5b505050506040513d601f19601f820116820180604052508101906105a4919061073a565b905090565b5f546001600160a01b031633146105ee5760405162461bcd60e51b81526020600482015260096024820152683737ba1037bbb732b960b91b6044820152606401610181565b5f80546001600160a01b0319166001600160a01b0392909216919091179055565b5f8060408385031215610620575f80fd5b50508035926020909101359150565b80356001600160a01b0381168114610645575f80fd5b919050565b5f805f6060848603121561065c575f80fd5b83359250602084013591506106736040850161062f565b90509250925092565b5f6020828403121561068c575f80fd5b5035919050565b5f602082840312156106a3575f80fd5b6106ac8261062f565b9392505050565b6020808252600e908201526d1a5b9d985b1a5908185b5bdd5b9d60921b604082015260600190565b5f602082840312156106eb575f80fd5b815180151581146106ac575f80fd5b634e487b7160e01b5f52601160045260245ffd5b80820180821115610721576107216106fa565b92915050565b81810381811115610721576107216106fa565b5f6020828403121561074a575f80fd5b505191905056fea2646970667358221220922f7588587b69683e7219aff788b7d5e342732ca9ccf9e69404e56c0fe06f7964736f6c63430008180033","linkReferences":{}},"methodIdentifiers":{"creditBridgeDeposit(bytes32,uint256)":"b0bf1e65","deposit(bytes32,uint256)":"1de26e16","getBalance(bytes32)":"8e739461","owner()":"8da5cb5b","transferOwnership(address)":"f2fde38b","usdc()":"3e413bee","vaultUSDCBalance()":"bc34e6da","withdraw(bytes32,uint256,address)":"3adab09c"},"id":0}