{"abi":[{"type":"constructor","inputs":[{"name":"usdcAddress","type":"address","internalType":"address"}],"stateMutability":"nonpayable"},{"type":"function","name":"balances","inputs":[{"name":"","type":"bytes32","internalType":"bytes32"}],"outputs":[{"name":"","type":"uint256","internalType":"uint256"}],"stateMutability":"view"},{"type":"function","name":"deposit","inputs":[{"name":"keyHash","type":"bytes32","internalType":"bytes32"},{"name":"amount","type":"uint256","internalType":"uint256"}],"outputs":[],"stateMutability":"nonpayable"},{"type":"function","name":"getBalance","inputs":[{"name":"keyHash","type":"bytes32","internalType":"bytes32"}],"outputs":[{"name":"","type":"uint256","internalType":"uint256"}],"stateMutability":"view"},{"type":"function","name":"owner","inputs":[],"outputs":[{"name":"","type":"address","internalType":"address"}],"stateMutability":"view"},{"type":"function","name":"usdc","inputs":[],"outputs":[{"name":"","type":"address","internalType":"contract IERC20"}],"stateMutability":"view"},{"type":"function","name":"withdraw","inputs":[{"name":"keyHash","type":"bytes32","internalType":"bytes32"},{"name":"amount","type":"uint256","internalType":"uint256"},{"name":"recipient","type":"address","internalType":"address"}],"outputs":[],"stateMutability":"nonpayable"}],"bytecode":{"object":"0x608060405234801561000f575f80fd5b5060405161046138038061046183398101604081905261002e9161005b565b5f80546001600160a01b039092166001600160a01b03199283161790556001805490911633179055610088565b5f6020828403121561006b575f80fd5b81516001600160a01b0381168114610081575f80fd5b9392505050565b6103cc806100955f395ff3fe608060405234801561000f575f80fd5b5060043610610060575f3560e01c80631de26e16146100645780633adab09c146100795780633e413bee1461008c5780638909aa3f146100bb5780638da5cb5b146100e85780638e739461146100fb575b5f80fd5b6100776100723660046102b8565b61011a565b005b6100776100873660046102d8565b61018b565b5f5461009e906001600160a01b031681565b6040516001600160a01b0390911681526020015b60405180910390f35b6100da6100c9366004610319565b60026020525f908152604090205481565b6040519081526020016100b2565b60015461009e906001600160a01b031681565b6100da610109366004610319565b5f9081526002602052604090205490565b6001546001600160a01b031633146101655760405162461bcd60e51b81526020600482015260096024820152683737ba1037bbb732b960b91b60448201526064015b60405180910390fd5b5f8281526002602052604081208054839290610182908490610344565b90915550505050565b6001546001600160a01b031633146101d15760405162461bcd60e51b81526020600482015260096024820152683737ba1037bbb732b960b91b604482015260640161015c565b5f8381526002602052604090205482111561021d5760405162461bcd60e51b815260206004820152600c60248201526b1a5b9cdd59999a58da595b9d60a21b604482015260640161015c565b5f838152600260205260408120805484929061023a90849061035d565b90915550505f5460405163a9059cbb60e01b81526001600160a01b038381166004830152602482018590529091169063a9059cbb906044016020604051808303815f875af115801561028e573d5f803e3d5ffd5b505050506040513d601f19601f820116820180604052508101906102b29190610370565b50505050565b5f80604083850312156102c9575f80fd5b50508035926020909101359150565b5f805f606084860312156102ea575f80fd5b833592506020840135915060408401356001600160a01b038116811461030e575f80fd5b809150509250925092565b5f60208284031215610329575f80fd5b5035919050565b634e487b7160e01b5f52601160045260245ffd5b8082018082111561035757610357610330565b92915050565b8181038181111561035757610357610330565b5f60208284031215610380575f80fd5b8151801515811461038f575f80fd5b939250505056fea26469706673582212208569e83a912a4049329824e73cdbd25a43b3acd960791f30c9a76956af7e3ac164736f6c63430008180033","linkReferences":{}},"methodIdentifiers":{"balances(bytes32)":"8909aa3f","deposit(bytes32,uint256)":"1de26e16","getBalance(bytes32)":"8e739461","owner()":"8da5cb5b","usdc()":"3e413bee","withdraw(bytes32,uint256,address)":"3adab09c"},"id":0}