{"abi":[{"type":"constructor","inputs":[{"name":"usdcAddress","type":"address","internalType":"address"}],"stateMutability":"nonpayable"},{"type":"function","name":"availableLiquidity","inputs":[],"outputs":[{"name":"","type":"uint256","internalType":"uint256"}],"stateMutability":"view"},{"type":"function","name":"createTicket","inputs":[{"name":"keyHash","type":"bytes32","internalType":"bytes32"},{"name":"amount","type":"uint256","internalType":"uint256"},{"name":"creator","type":"address","internalType":"address"}],"outputs":[],"stateMutability":"nonpayable"},{"type":"function","name":"creditBridgeDeposit","inputs":[{"name":"keyHash","type":"bytes32","internalType":"bytes32"},{"name":"amount","type":"uint256","internalType":"uint256"}],"outputs":[],"stateMutability":"nonpayable"},{"type":"function","name":"deposit","inputs":[{"name":"keyHash","type":"bytes32","internalType":"bytes32"},{"name":"amount","type":"uint256","internalType":"uint256"}],"outputs":[],"stateMutability":"nonpayable"},{"type":"function","name":"getBalance","inputs":[{"name":"keyHash","type":"bytes32","internalType":"bytes32"}],"outputs":[{"name":"","type":"uint256","internalType":"uint256"}],"stateMutability":"view"},{"type":"function","name":"owner","inputs":[],"outputs":[{"name":"","type":"address","internalType":"address"}],"stateMutability":"view"},{"type":"function","name":"ticketBalance","inputs":[{"name":"keyHash","type":"bytes32","internalType":"bytes32"}],"outputs":[{"name":"","type":"uint256","internalType":"uint256"}],"stateMutability":"view"},{"type":"function","name":"ticketCreator","inputs":[{"name":"","type":"bytes32","internalType":"bytes32"}],"outputs":[{"name":"","type":"address","internalType":"address"}],"stateMutability":"view"},{"type":"function","name":"totalAllocated","inputs":[],"outputs":[{"name":"","type":"uint256","internalType":"uint256"}],"stateMutability":"view"},{"type":"function","name":"transferOwnership","inputs":[{"name":"newOwner","type":"address","internalType":"address"}],"outputs":[],"stateMutability":"nonpayable"},{"type":"function","name":"usdc","inputs":[],"outputs":[{"name":"","type":"address","internalType":"contract IERC20"}],"stateMutability":"view"},{"type":"function","name":"vaultUSDCBalance","inputs":[],"outputs":[{"name":"","type":"uint256","internalType":"uint256"}],"stateMutability":"view"},{"type":"function","name":"withdraw","inputs":[{"name":"secret","type":"string","internalType":"string"},{"name":"amount","type":"uint256","internalType":"uint256"},{"name":"recipient","type":"address","internalType":"address"}],"outputs":[],"stateMutability":"nonpayable"},{"type":"event","name":"BridgeCredit","inputs":[{"name":"keyHash","type":"bytes32","indexed":true,"internalType":"bytes32"},{"name":"amount","type":"uint256","indexed":false,"internalType":"uint256"}],"anonymous":false},{"type":"event","name":"Deposit","inputs":[{"name":"depositor","type":"address","indexed":true,"internalType":"address"},{"name":"keyHash","type":"bytes32","indexed":true,"internalType":"bytes32"},{"name":"amount","type":"uint256","indexed":false,"internalType":"uint256"}],"anonymous":false},{"type":"event","name":"TicketCreated","inputs":[{"name":"creator","type":"address","indexed":true,"internalType":"address"},{"name":"keyHash","type":"bytes32","indexed":true,"internalType":"bytes32"},{"name":"amount","type":"uint256","indexed":false,"internalType":"uint256"}],"anonymous":false},{"type":"event","name":"Withdraw","inputs":[{"name":"caller","type":"address","indexed":true,"internalType":"address"},{"name":"keyHash","type":"bytes32","indexed":true,"internalType":"bytes32"},{"name":"recipient","type":"address","indexed":true,"internalType":"address"},{"name":"amount","type":"uint256","indexed":false,"internalType":"uint256"}],"anonymous":false}],"bytecode":{"object":"0x60a060405234801561000f575f80fd5b50604051610d3b380380610d3b83398101604081905261002e91610050565b6001600160a01b03166080525f80546001600160a01b0319163317905561007d565b5f60208284031215610060575f80fd5b81516001600160a01b0381168114610076575f80fd5b9392505050565b608051610c7d6100be5f395f818160e90152818161023e0152818161034c015281816104d0015281816106380152818161083d01526109510152610c7d5ff3fe608060405234801561000f575f80fd5b50600436106100cb575f3560e01c80638da5cb5b11610088578063bc34e6da11610063578063bc34e6da146101b1578063d8942e5e146101b9578063dd222b471461017f578063f2fde38b146101e1575f80fd5b80638da5cb5b1461016d5780638e7394611461017f578063b0bf1e651461019e575f80fd5b80631de26e16146100cf5780633e413bee146100e457806345f7f24914610128578063743753591461013f5780637804e707146101475780637f0e7fbf1461015a575b5f80fd5b6100e26100dd366004610a51565b6101f4565b005b61010b7f000000000000000000000000000000000000000000000000000000000000000081565b6040516001600160a01b0390911681526020015b60405180910390f35b61013160035481565b60405190815260200161011f565b610131610329565b6100e2610155366004610a8c565b6103c4565b6100e2610168366004610b0e565b6105cd565b5f5461010b906001600160a01b031681565b61013161018d366004610b40565b5f9081526001602052604090205490565b6100e26101ac366004610a51565b6107d2565b61013161093a565b61010b6101c7366004610b40565b60026020525f90815260409020546001600160a01b031681565b6100e26101ef366004610b57565b6109c2565b5f811161021c5760405162461bcd60e51b815260040161021390610b77565b60405180910390fd5b6040516323b872dd60e01b8152336004820152306024820152604481018290527f00000000000000000000000000000000000000000000000000000000000000006001600160a01b0316906323b872dd906064016020604051808303815f875af115801561028c573d5f803e3d5ffd5b505050506040513d601f19601f820116820180604052508101906102b09190610b9f565b6102ee5760405162461bcd60e51b815260206004820152600f60248201526e1d1c985b9cd9995c8819985a5b1959608a1b6044820152606401610213565b604051818152829033907f19dacbf83c5de6658e14cbf7bcae5c15eca2eedecf1c66fbca928e4d351bea0f9060200160405180910390a35050565b6003546040516370a0823160e01b81523060048201525f91906001600160a01b037f000000000000000000000000000000000000000000000000000000000000000016906370a0823190602401602060405180830381865afa158015610391573d5f803e3d5ffd5b505050506040513d601f19601f820116820180604052508101906103b59190610bbe565b6103bf9190610be9565b905090565b5f82116103e35760405162461bcd60e51b815260040161021390610b77565b5f84846040516020016103f7929190610c02565b6040516020818303038152906040528051906020012090508260015f8381526020019081526020015f205410156104705760405162461bcd60e51b815260206004820152601b60248201527f696e73756666696369656e74207469636b65742062616c616e636500000000006044820152606401610213565b5f818152600160205260408120805485929061048d908490610be9565b925050819055508260035f8282546104a59190610be9565b909155505060405163a9059cbb60e01b81526001600160a01b038381166004830152602482018590527f0000000000000000000000000000000000000000000000000000000000000000169063a9059cbb906044016020604051808303815f875af1158015610516573d5f803e3d5ffd5b505050506040513d601f19601f8201168201806040525081019061053a9190610b9f565b6105785760405162461bcd60e51b815260206004820152600f60248201526e1dda5d1a191c985dc819985a5b1959608a1b6044820152606401610213565b816001600160a01b031681336001600160a01b03167ff0656f6cddefe9a7eff525fff23aff019ff0f2d2d2a51a133f094222caef3034866040516105be91815260200190565b60405180910390a45050505050565b5f546001600160a01b031633146105f65760405162461bcd60e51b815260040161021390610c11565b5f82116106155760405162461bcd60e51b815260040161021390610b77565b6003546040516370a0823160e01b81523060048201525f91906001600160a01b037f000000000000000000000000000000000000000000000000000000000000000016906370a0823190602401602060405180830381865afa15801561067d573d5f803e3d5ffd5b505050506040513d601f19601f820116820180604052508101906106a19190610bbe565b6106ab9190610be9565b9050828110156106f65760405162461bcd60e51b8152602060048201526016602482015275696e73756666696369656e74206c697175696469747960501b6044820152606401610213565b5f848152600260205260409020546001600160a01b031661072f575f84815260026020526040902080546001600160a01b031916331790555b5f84815260026020908152604080832080546001600160a01b0319166001600160a01b03871617905560019091528120805485929061076f908490610c34565b925050819055508260035f8282546107879190610c34565b909155505060405183815284906001600160a01b038416907f9ca9de929b6225d4c603e11058d310c394868ced77931878a30505d6b35d5de69060200160405180910390a350505050565b5f546001600160a01b031633146107fb5760405162461bcd60e51b815260040161021390610c11565b5f811161081a5760405162461bcd60e51b815260040161021390610b77565b6003546040516370a0823160e01b81523060048201525f91906001600160a01b037f000000000000000000000000000000000000000000000000000000000000000016906370a0823190602401602060405180830381865afa158015610882573d5f803e3d5ffd5b505050506040513d601f19601f820116820180604052508101906108a69190610bbe565b6108b09190610be9565b9050818110156108fb5760405162461bcd60e51b8152602060048201526016602482015275696e73756666696369656e74206c697175696469747960501b6044820152606401610213565b827f8b1d6777928f63751025c630105db7e6a74d7527b1474e6fb143e17b12da40188360405161092d91815260200190565b60405180910390a2505050565b6040516370a0823160e01b81523060048201525f907f00000000000000000000000000000000000000000000000000000000000000006001600160a01b0316906370a0823190602401602060405180830381865afa15801561099e573d5f803e3d5ffd5b505050506040513d601f19601f820116820180604052508101906103bf9190610bbe565b5f546001600160a01b031633146109eb5760405162461bcd60e51b815260040161021390610c11565b6001600160a01b038116610a305760405162461bcd60e51b815260206004820152600c60248201526b7a65726f206164647265737360a01b6044820152606401610213565b5f80546001600160a01b0319166001600160a01b0392909216919091179055565b5f8060408385031215610a62575f80fd5b50508035926020909101359150565b80356001600160a01b0381168114610a87575f80fd5b919050565b5f805f8060608587031215610a9f575f80fd5b843567ffffffffffffffff80821115610ab6575f80fd5b818701915087601f830112610ac9575f80fd5b813581811115610ad7575f80fd5b886020828501011115610ae8575f80fd5b602092830196509450508501359150610b0360408601610a71565b905092959194509250565b5f805f60608486031215610b20575f80fd5b8335925060208401359150610b3760408501610a71565b90509250925092565b5f60208284031215610b50575f80fd5b5035919050565b5f60208284031215610b67575f80fd5b610b7082610a71565b9392505050565b6020808252600e908201526d1a5b9d985b1a5908185b5bdd5b9d60921b604082015260600190565b5f60208284031215610baf575f80fd5b81518015158114610b70575f80fd5b5f60208284031215610bce575f80fd5b5051919050565b634e487b7160e01b5f52601160045260245ffd5b81810381811115610bfc57610bfc610bd5565b92915050565b818382375f9101908152919050565b6020808252600990820152683737ba1037bbb732b960b91b604082015260600190565b80820180821115610bfc57610bfc610bd556fea26469706673582212203d42c1a4aa2580c4524184f8973e38d7bd1dae7f9eb9b4d9a375a3d7a5a5b20164736f6c63430008180033","linkReferences":{}},"methodIdentifiers":{"availableLiquidity()":"74375359","createTicket(bytes32,uint256,address)":"7f0e7fbf","creditBridgeDeposit(bytes32,uint256)":"b0bf1e65","deposit(bytes32,uint256)":"1de26e16","getBalance(bytes32)":"8e739461","owner()":"8da5cb5b","ticketBalance(bytes32)":"dd222b47","ticketCreator(bytes32)":"d8942e5e","totalAllocated()":"45f7f249","transferOwnership(address)":"f2fde38b","usdc()":"3e413bee","vaultUSDCBalance()":"bc34e6da","withdraw(string,uint256,address)":"7804e707"},"id":0}