{"abi":[{"type":"constructor","inputs":[{"name":"usdcAddress","type":"address","internalType":"address"}],"stateMutability":"nonpayable"},{"type":"function","name":"deposit","inputs":[{"name":"keyHash","type":"bytes32","internalType":"bytes32"},{"name":"amount","type":"uint256","internalType":"uint256"}],"outputs":[],"stateMutability":"nonpayable"},{"type":"function","name":"getBalance","inputs":[{"name":"keyHash","type":"bytes32","internalType":"bytes32"}],"outputs":[{"name":"","type":"uint256","internalType":"uint256"}],"stateMutability":"view"},{"type":"function","name":"usdc","inputs":[],"outputs":[{"name":"","type":"address","internalType":"contract IERC20"}],"stateMutability":"view"},{"type":"function","name":"vaults","inputs":[{"name":"","type":"bytes32","internalType":"bytes32"}],"outputs":[{"name":"balance","type":"uint256","internalType":"uint256"}],"stateMutability":"view"},{"type":"function","name":"withdraw","inputs":[{"name":"keyHash","type":"bytes32","internalType":"bytes32"},{"name":"amount","type":"uint256","internalType":"uint256"}],"outputs":[],"stateMutability":"nonpayable"},{"type":"event","name":"Deposited","inputs":[{"name":"keyHash","type":"bytes32","indexed":true,"internalType":"bytes32"},{"name":"amount","type":"uint256","indexed":false,"internalType":"uint256"}],"anonymous":false},{"type":"event","name":"Withdrawn","inputs":[{"name":"keyHash","type":"bytes32","indexed":true,"internalType":"bytes32"},{"name":"amount","type":"uint256","indexed":false,"internalType":"uint256"},{"name":"receiver","type":"address","indexed":false,"internalType":"address"}],"anonymous":false}],"bytecode":{"object":"0x60a060405234801561000f575f80fd5b5060405161055c38038061055c83398101604081905261002e9161003f565b6001600160a01b031660805261006c565b5f6020828403121561004f575f80fd5b81516001600160a01b0381168114610065575f80fd5b9392505050565b6080516104cb6100915f395f818160860152818161019801526102e901526104cb5ff3fe608060405234801561000f575f80fd5b5060043610610055575f3560e01c8063040cf020146100595780631de26e161461006e5780633e413bee146100815780638e739461146100c5578063cca23bf2146100f2575b5f80fd5b61006c6100673660046103f8565b610111565b005b61006c61007c3660046103f8565b61028b565b6100a87f000000000000000000000000000000000000000000000000000000000000000081565b6040516001600160a01b0390911681526020015b60405180910390f35b6100e46100d3366004610418565b5f9081526020819052604090205490565b6040519081526020016100bc565b6100e4610100366004610418565b5f6020819052908152604090205481565b5f82815260208190526040902080548211156101635760405162461bcd60e51b815260206004820152600c60248201526b1a5b9cdd59999a58da595b9d60a21b60448201526064015b60405180910390fd5b81815f015f8282546101759190610443565b909155505060405163a9059cbb60e01b8152336004820152602481018390525f907f00000000000000000000000000000000000000000000000000000000000000006001600160a01b03169063a9059cbb906044016020604051808303815f875af11580156101e6573d5f803e3d5ffd5b505050506040513d601f19601f8201168201806040525081019061020a919061045c565b90508061024b5760405162461bcd60e51b815260206004820152600f60248201526e1d1c985b9cd9995c8819985a5b1959608a1b604482015260640161015a565b6040805184815233602082015285917fd0b6e7d0170f56c62f87de6a8a47a0ccf41c86ffb5084d399d8eb62e823f2a81910160405180910390a250505050565b5f81116102c55760405162461bcd60e51b81526020600482015260086024820152670616d6f756e743d360c41b604482015260640161015a565b6040516323b872dd60e01b8152336004820152306024820152604481018290525f907f00000000000000000000000000000000000000000000000000000000000000006001600160a01b0316906323b872dd906064016020604051808303815f875af1158015610337573d5f803e3d5ffd5b505050506040513d601f19601f8201168201806040525081019061035b919061045c565b90508061039c5760405162461bcd60e51b815260206004820152600f60248201526e1d1c985b9cd9995c8819985a5b1959608a1b604482015260640161015a565b5f83815260208190526040812080548492906103b9908490610482565b909155505060405182815283907fcd2fe07293de5928c5df9505b65a8d6506f8668dfe81af09090920687edc48a99060200160405180910390a2505050565b5f8060408385031215610409575f80fd5b50508035926020909101359150565b5f60208284031215610428575f80fd5b5035919050565b634e487b7160e01b5f52601160045260245ffd5b818103818111156104565761045661042f565b92915050565b5f6020828403121561046c575f80fd5b8151801515811461047b575f80fd5b9392505050565b808201808211156104565761045661042f56fea264697066735822122038a0af2ca19a0df8373aa3ebdc014ee1fc57b8bc08903e88513123e3b74104ea64736f6c63430008180033","linkReferences":{}},"methodIdentifiers":{"deposit(bytes32,uint256)":"1de26e16","getBalance(bytes32)":"8e739461","usdc()":"3e413bee","vaults(bytes32)":"cca23bf2","withdraw(bytes32,uint256)":"040cf020"},"id":0}